{
  "contractName": "RedeemableNative",
  "abi": [
    {
      "anonymous": false,
      "inputs": [
        {
          "indexed": true,
          "internalType": "address",
          "name": "slotId",
          "type": "address"
        },
        {
          "indexed": false,
          "internalType": "uint256",
          "name": "tokenAmount",
          "type": "uint256"
        }
      ],
      "name": "Deposit",
      "type": "event"
    },
    {
      "anonymous": false,
      "inputs": [
        {
          "indexed": false,
          "internalType": "address",
          "name": "userAddress",
          "type": "address"
        },
        {
          "indexed": false,
          "internalType": "address payable",
          "name": "relayerAddress",
          "type": "address"
        },
        {
          "indexed": false,
          "internalType": "bytes",
          "name": "functionSignature",
          "type": "bytes"
        }
      ],
      "name": "MetaTransactionExecuted",
      "type": "event"
    },
    {
      "anonymous": false,
      "inputs": [
        {
          "indexed": true,
          "internalType": "address",
          "name": "slotId",
          "type": "address"
        },
        {
          "indexed": false,
          "internalType": "address",
          "name": "to",
          "type": "address"
        }
      ],
      "name": "Redeem",
      "type": "event"
    },
    {
      "stateMutability": "payable",
      "type": "fallback",
      "payable": true
    },
    {
      "inputs": [
        {
          "internalType": "address",
          "name": "userAddress",
          "type": "address"
        },
        {
          "internalType": "bytes",
          "name": "functionSignature",
          "type": "bytes"
        },
        {
          "internalType": "bytes32",
          "name": "sigR",
          "type": "bytes32"
        },
        {
          "internalType": "bytes32",
          "name": "sigS",
          "type": "bytes32"
        },
        {
          "internalType": "uint8",
          "name": "sigV",
          "type": "uint8"
        }
      ],
      "name": "executeMetaTransaction",
      "outputs": [
        {
          "internalType": "bytes",
          "name": "",
          "type": "bytes"
        }
      ],
      "stateMutability": "payable",
      "type": "function",
      "payable": true
    },
    {
      "inputs": [
        {
          "internalType": "address",
          "name": "user",
          "type": "address"
        }
      ],
      "name": "getNonce",
      "outputs": [
        {
          "internalType": "uint256",
          "name": "nonce",
          "type": "uint256"
        }
      ],
      "stateMutability": "view",
      "type": "function",
      "constant": true
    },
    {
      "inputs": [
        {
          "internalType": "address",
          "name": "slotId",
          "type": "address"
        }
      ],
      "name": "isSlotActive",
      "outputs": [
        {
          "internalType": "bool",
          "name": "",
          "type": "bool"
        }
      ],
      "stateMutability": "view",
      "type": "function",
      "constant": true
    },
    {
      "inputs": [
        {
          "internalType": "address",
          "name": "slotId",
          "type": "address"
        }
      ],
      "name": "slotData",
      "outputs": [
        {
          "components": [
            {
              "internalType": "bool",
              "name": "used",
              "type": "bool"
            },
            {
              "internalType": "bool",
              "name": "active",
              "type": "bool"
            },
            {
              "internalType": "uint256[]",
              "name": "tokenAmount",
              "type": "uint256[]"
            }
          ],
          "internalType": "struct RedeemableNative.TokenSlot",
          "name": "",
          "type": "tuple"
        }
      ],
      "stateMutability": "view",
      "type": "function",
      "constant": true
    },
    {
      "inputs": [
        {
          "internalType": "address",
          "name": "slotId",
          "type": "address"
        },
        {
          "internalType": "address payable",
          "name": "to",
          "type": "address"
        }
      ],
      "name": "redeem",
      "outputs": [],
      "stateMutability": "nonpayable",
      "type": "function"
    }
  ],
  "bytecode": "0x608060405234801561001057600080fd5b506040518060400160405280601081526020016f52656465656d61626c654e617469766560801b815250604051806040016040528060018152602001603160f81b81525081816040518060800160405280604f8152602001611102604f91398051906020012082805190602001208280519060200120306100956100ea60201b60201c565b60408051602081019690965285019390935260608401919091526001600160a01b0316608083015260a082015260c00160405160208183030381529060405280519060200120600081905550505050506100ee565b4690565b611005806100fd6000396000f3fe60806040526004361061004a5760003560e01c80630c53c51c146102ab5780631aeb740e146102d45780632d0335ab146103225780636e26a62314610366578063bba06f2714610393575b602036146100d05760405162461bcd60e51b815260206004820152604260248201527f52656465656d61626c654e61746976653a20546f6b656e20726563656976656460448201527f2064617461206d75737420626520612033322d62797465207075626c6963206b606482015261657960f01b608482015260a4015b60405180910390fd5b60006100dc3682610c8f565b9050610100816001600160a01b031660009081526002602052604090205460ff1690565b156101b55760405162461bcd60e51b815260206004820152607360248201527f52656465656d61626c654e61746976653a204120736c6f74207769746820746860448201527f61742049442f72656465656d6572206b65792068617320616c7265616479206260648201527f65656e20757365642e2047656e65726174652061206e6577206b657920746f206084820152723232b837b9b4ba103a3434b9903a37b5b2b71760691b60a482015260c4016100c7565b6040805160018082528183019092526000916020808301908036833701905050905034816000815181106101eb576101eb610cc9565b6020908102919091018101919091526040805160608101825260018082528184018181528284018681526001600160a01b0388166000908152600287529490942083518154925161ffff1990931690151561ff00191617610100921515929092029190911781559251805192946102689392850192910190610c17565b50506040513481526001600160a01b03841691507fe1fffcc4923d04b559f4d29a8bfc6cda04eb5b0d3c460751c2402c5c5cc9109c9060200160405180910390a2005b6102be6102b9366004610cf5565b6103b5565b6040516102cb9190610e2d565b60405180910390f35b3480156102e057600080fd5b506103126102ef366004610c8f565b6001600160a01b0316600090815260026020526040902054610100900460ff1690565b60405190151581526020016102cb565b34801561032e57600080fd5b5061035861033d366004610c8f565b6001600160a01b031660009081526001602052604090205490565b6040519081526020016102cb565b34801561037257600080fd5b50610386610381366004610c8f565b61062b565b6040516102cb9190610e40565b34801561039f57600080fd5b506103b36103ae366004610eaa565b6106d8565b005b606060006103c286610a09565b90506001600160e01b03196000358116908216036104485760405162461bcd60e51b815260206004820152603d60248201527f66756e6374696f6e5369676e61747572652063616e206e6f74206265206f662060448201527f657865637574654d6574615472616e73616374696f6e206d6574686f6400000060648201526084016100c7565b604080516060810182526001600160a01b038916600081815260016020908152908490205483528201529081018790526104858882888888610a24565b6104db5760405162461bcd60e51b815260206004820152602160248201527f5369676e657220616e64207369676e617475726520646f206e6f74206d6174636044820152600d60fb1b60648201526084016100c7565b6001600160a01b03881660009081526001602081905260409091205461050091610b00565b6001600160a01b0389166000908152600160209081526040808320939093559151909182913091610535918c918e9101610ee3565b60408051601f198184030181529082905261054f91610f1a565b6000604051808303816000865af19150503d806000811461058c576040519150601f19603f3d011682016040523d82523d6000602084013e610591565b606091505b5091509150816105e35760405162461bcd60e51b815260206004820152601c60248201527f46756e6374696f6e2063616c6c206e6f74207375636365737366756c0000000060448201526064016100c7565b7f5845892132946850460bff5a0083f71031bc5bf9aadcd40f1de79423eac9b10b8a338b60405161061693929190610f36565b60405180910390a19998505050505050505050565b6040805160608082018352600080835260208084018290528385018390526001600160a01b0386168252600281529084902084519283018552805460ff808216151585526101009091041615158383015260018101805486518185028101850188528181529596949592948601938301828280156106c857602002820191906000526020600020905b8154815260200190600101908083116106b4575b5050505050815250509050919050565b6001600160a01b038216600090815260026020526040902054610100900460ff1661075d5760405162461bcd60e51b815260206004820152602f60248201527f52656465656d61626c654e61746976653a2052657175657374656420736c6f7460448201526e1034b9903737ba1030b1ba34bb329760891b60648201526084016100c7565b816001600160a01b031661076f610b15565b6001600160a01b0316146107f95760405162461bcd60e51b8152602060048201526044602482018190527f52656465656d61626c654e61746976653a20546869732063616c6c6572206973908201527f206e6f7420617574686f72697a656420746f2072656465656d207468697320736064820152633637ba1760e11b608482015260a4016100c7565b6001600160a01b03821660009081526002602090815260408083208151606081018352815460ff808216151583526101009091041615158185015260018201805484518187028101870186528181529295939486019383018282801561087e57602002820191906000526020600020905b81548152602001906001019080831161086a575b50505091909252505060408051606081018252600180825260006020808401828152855183815280830187528587019081526001600160a01b038c168452600283529590922084518154935161ffff1990941690151561ff0019161761010093151593909302929092178255935180519697509295909450610907939185019290910190610c17565b509050506000826001600160a01b0316826040015160008151811061092e5761092e610cc9565b602002602001015160405160006040518083038185875af1925050503d8060008114610976576040519150601f19603f3d011682016040523d82523d6000602084013e61097b565b606091505b50509050806109c35760405162461bcd60e51b81526020600482015260146024820152732330b4b632b2103a379039b2b7321022ba3432b960611b60448201526064016100c7565b6040516001600160a01b0384811682528516907f2f39d8fc9160ae00ea6a02229ae376184d7ad48d669c511863fedeb3f6f27edf9060200160405180910390a250505050565b60008151600003610a1c57506000919050565b506020015190565b6000806001610a3a610a3588610b71565b610bee565b6040805160008152602081018083529290925260ff861690820152606081018790526080810186905260a0016020604051602081039080840390855afa158015610a88573d6000803e3d6000fd5b5050604051601f1901519150506001600160a01b038116610adf5760405162461bcd60e51b8152602060048201526011602482015270496e76616c6964207369676e617475726560781b60448201526064016100c7565b866001600160a01b0316816001600160a01b03161491505095945050505050565b6000610b0c8284610f6b565b90505b92915050565b6000303303610b6b57600080368080601f0160208091040260200160405190810160405280939291908181526020018383808284376000920191909152505050503601516001600160a01b03169150610b6e9050565b50335b90565b6000604051806080016040528060438152602001610f8d6043913980516020918201208351848301516040808701518051908601209051610bd1950193845260208401929092526001600160a01b03166040830152606082015260800190565b604051602081830303815290604052805190602001209050919050565b6000805460405161190160f01b6020820152602281019190915260428101839052606201610bd1565b828054828255906000526020600020908101928215610c52579160200282015b82811115610c52578251825591602001919060010190610c37565b50610c5e929150610c62565b5090565b5b80821115610c5e5760008155600101610c63565b6001600160a01b0381168114610c8c57600080fd5b50565b600060208284031215610ca157600080fd5b8135610cac81610c77565b9392505050565b634e487b7160e01b600052604160045260246000fd5b634e487b7160e01b600052603260045260246000fd5b803560ff81168114610cf057600080fd5b919050565b600080600080600060a08688031215610d0d57600080fd5b8535610d1881610c77565b9450602086013567ffffffffffffffff80821115610d3557600080fd5b818801915088601f830112610d4957600080fd5b813581811115610d5b57610d5b610cb3565b604051601f8201601f19908116603f01168101908382118183101715610d8357610d83610cb3565b816040528281528b6020848701011115610d9c57600080fd5b8260208601602083013760006020848301015280985050505050506040860135925060608601359150610dd160808701610cdf565b90509295509295909350565b60005b83811015610df8578181015183820152602001610de0565b50506000910152565b60008151808452610e19816020860160208601610ddd565b601f01601f19169290920160200192915050565b602081526000610b0c6020830184610e01565b600060208083526080830184511515828501528185015115156040850152604085015160608086015281815180845260a0870191508483019350600092505b80831015610e9f5783518252928401926001929092019190840190610e7f565b509695505050505050565b60008060408385031215610ebd57600080fd5b8235610ec881610c77565b91506020830135610ed881610c77565b809150509250929050565b60008351610ef5818460208801610ddd565b60609390931b6bffffffffffffffffffffffff19169190920190815260140192915050565b60008251610f2c818460208701610ddd565b9190910192915050565b6001600160a01b03848116825283166020820152606060408201819052600090610f6290830184610e01565b95945050505050565b80820180821115610b0f57634e487b7160e01b600052601160045260246000fdfe4d6574615472616e73616374696f6e2875696e74323536206e6f6e63652c616464726573732066726f6d2c62797465732066756e6374696f6e5369676e617475726529a26469706673582212208df82d0401ee90b05ba180c9ba53911bb964650a282f1ea054735f54cc793c0264736f6c63430008110033454950373132446f6d61696e28737472696e67206e616d652c737472696e672076657273696f6e2c6164647265737320766572696679696e67436f6e74726163742c627974657333322073616c7429",
  "immutableReferences": {},
  "source": "// SPDX-License-Identifier: MIT\npragma solidity ^0.8.3;\n\nimport \"@openzeppelin/contracts/utils/Address.sol\";\nimport \"@openzeppelin/contracts/utils/cryptography/ECDSA.sol\";\nimport \"./biconomy-metatx-standard/EIP712MetaTransaction.sol\";\n\n/**\n * eda11f84a344185cc51267181edbce7959fc569b\n * 53c4070247fae22847e99799ae19387ae3844240\n * a018b8910cef1e8ee3d83729819d8eb89c99b6ed\n *\n * <3\n */\ncontract RedeemableNative is EIP712MetaTransaction(\"RedeemableNative\", \"1\") {\n    /**\n     * @dev Emitted when the native currency (e.g. ETH, MATIC) is deposited into slot `slotId`.\n     */\n    event Deposit(address indexed slotId, uint256 tokenAmount);\n\n    /**\n     * @dev Emitted when the native currency (e.g. ETH, MATIC) in `slotId` is taken out (redeemed) and transferred to `to`.\n     */\n    event Redeem(address indexed slotId, address to);\n\n    struct TokenSlot {\n        // True if this slot is either active or redeemed. This is used to ensure that slots are never reused.\n        bool used;\n        // True if active, false if inactive.\n        bool active;\n        uint256[] tokenAmount;\n    }\n    mapping(address => TokenSlot) internal _slots;\n\n    /**\n     * @dev Callable function to deposit the native currency (e.g. ETH, MATIC) into the Redeemable contract.\n     */\n    fallback() external payable {\n        // Parse the redeemer key from the data\n        require(\n            msg.data.length == 32,\n            \"RedeemableNative: Token received data must be a 32-byte public key\"\n        );\n        // Note: abi.decode can fail and revert without providing a reason.\n        address redeemerKey = abi.decode(msg.data, (address));\n\n        require(\n            !isSlotUsed(redeemerKey),\n            \"RedeemableNative: A slot with that ID/redeemer key has already been used. Generate a new key to deposit this token.\"\n        );\n\n        uint256[] memory values = new uint256[](1);\n        values[0] = msg.value;\n\n        _slots[redeemerKey] = TokenSlot({\n            used: true,\n            active: true,\n            tokenAmount: values\n        });\n\n        emit Deposit(redeemerKey, msg.value);\n    }\n\n    function isSlotActive(address slotId) public view returns (bool) {\n        // tokenContract must be cleared/unset upon redemption.\n        return _slots[slotId].active;\n    }\n\n    function slotData(address slotId) public view returns (TokenSlot memory) {\n        return _slots[slotId];\n    }\n\n    function redeem(address slotId, address payable to) external {\n        require(\n            isSlotActive(slotId),\n            \"RedeemableNative: Requested slot is not active.\"\n        );\n\n        // Slot ID is the same as the redeemer key, and must equal the address that is calling redeem or signed the meta-transaction to redeem.\n        require(\n            msgSender() == slotId,\n            \"RedeemableNative: This caller is not authorized to redeem this slot.\"\n        );\n\n        // Make a copy of the slot data as we are about to overwrite it.\n        TokenSlot memory slotCopy = _slots[slotId];\n\n        // Empty the slot before calling the token contract. This protects from reentrant calls.\n        // Leave a blank used record in place to prevent slot reuse.\n        _slots[slotId] = TokenSlot({\n            used: true,\n            active: false,\n            tokenAmount: new uint256[](0)\n        });\n\n        // transfer can fail and revert.\n        (bool sent, ) = to.call{value: slotCopy.tokenAmount[0]}(\"\");\n        require(sent, \"Failed to send Ether\");\n\n        emit Redeem(slotId, to);\n    }\n\n    function isSlotUsed(address slotId) private view returns (bool) {\n        return _slots[slotId].used;\n    }\n}\n",
  "sourcePath": "/Users/pash/Documents/Nugbase/redeemable-contracts/contracts/RedeemableNative.sol",
  "compiler": {
    "name": "solc",
    "version": "0.8.17+commit.8df45f5f.Emscripten.clang"
  },
  "schemaVersion": "3.3.4",
  "updatedAt": "2022-11-05T21:25:50.832Z",
  "networkType": "ethereum",
  "devdoc": {
    "events": {
      "Deposit(address,uint256)": {
        "details": "Emitted when the native currency (e.g. ETH, MATIC) is deposited into slot `slotId`."
      },
      "Redeem(address,address)": {
        "details": "Emitted when the native currency (e.g. ETH, MATIC) in `slotId` is taken out (redeemed) and transferred to `to`."
      }
    },
    "kind": "dev",
    "methods": {},
    "version": 1
  },
  "userdoc": {
    "kind": "user",
    "methods": {},
    "notice": "eda11f84a344185cc51267181edbce7959fc569b 53c4070247fae22847e99799ae19387ae3844240 a018b8910cef1e8ee3d83729819d8eb89c99b6ed <3",
    "version": 1
  }
}